:020000040800F2
:1000000000000520C9B6000819B7000819B7000894
:1000100019B7000819B7000819B700080000000058
:10002000000000000000000000000000C1410008C6
:1000300019B70008000000006142000845B100083F
:1000400019B7000819B7000819B7000819B7000850
:1000500019B7000819B7000819B7000819B7000840
:1000600019B7000819B7000819B7000819B7000830
:1000700019B7000819B7000819B7000819B7000820
:1000800019B7000819B7000819B7000819B7000810
:1000900019B7000819B7000819B7000819B7000800
:1000A00019B7000849B1000819B7000819B70008C6
:1000B00019B7000819B7000819B7000819B70008E0
:1000C00019B7000819B7000819B7000819B70008D0
:1000D00019B7000819B7000819B7000819B70008C0
:1000E00019B7000819B7000819B7000819B70008B0
:1000F00019B7000819B7000819B7000819B70008A0
:1001000019B7000819B7000819B7000819B700088F
:1001100019B7000819B7000819B7000819B700087F
:1001200019B7000819B7000819B7000819B700086F
:1001300019B7000855B1000819B7000819B7000829
:1001400019B7000819B7000819B7000861B100080D
:1001500019B7000819B7000819B7000819B700083F
:1001600019B7000819B7000819B7000819B700082F
:1001700019B7000819B7000819B7000800000000F7
:1001800019B7000819B7000819B7000819B700080F
:1001900019B7000819B7000819B7000819B70008FF
:1001A00019B7000819B7000819B7000819B70008EF
:1001B00019B7000819B7000819B7000819B70008DF
:0801C00019B7000819B7000887
:1001D00010B5054C237833B9044B13B10448AFF381
:1001E00000800123237010BDD80100200000000012
:1001F000B8C5000808B5034B1BB103490348AFF36A
:10020000008008BD00000000DC010020B8C5000827
:1002100001F0FF01102A2BDB10F0070F08D010F8B7
:10022000013B013A8B422DD010F0070F42B3F6D1BB
:10023000F0B441EA012141EA014122F007047FF0D4
:1002400000070023F0E80256083C85EA010586EA2B
:10025000010685FA47F5A3FA87F586FA47F6A5FA67
:1002600087F68EB9EED1F0BC01F0FF0102F0070273
:1002700032B110F8013B013A83EA010313B1F8D11E
:100280000020704701387047002D06BF35460338FF
:10029000073815F0010F07D1013015F4807F02BF38
:1002A000013015F4C03F0130F0BC0138704700BF89
:1002B00053B94AB9002908BF00281CBF4FF0FF31CD
:1002C0004FF0FF3000F07AB9ADF1080C6DE904CEC3
:1002D00000F006F8DDF804E0DDE9022304B0704721
:1002E0002DE9F0478C460D460446089E002B51D15F
:1002F0008A4217466DD9B2FA82FEBEF1000F0BD0CA
:10030000CEF1200C01FA0EF520FA0CFC02FA0EF7E1
:100310004CEA050C00FA0EF44FEA174A250CBCFB18
:10032000FAF81FFA87F90AFB18CC45EA0C4508FBD6
:1003300009F3AB420AD9ED1908F1FF3280F02381AD
:10034000AB4240F22081A8F102083D44ED1AA4B26C
:10035000B5FBFAF00AFB105544EA054400FB09F925
:10036000A14509D9E41900F1FF3380F00A81A145C4
:1003700040F2078102383C44A4EB090440EA0840FB
:100380000021002E61D024FA0EF400233460736043
:10039000BDE8F0878B4207D9002E54D0002186E8B3
:1003A00021000846BDE8F087B3FA83F1002940F048
:1003B0008E80AB4202D3824200F2FA80841A65EB4F
:1003C00003050120AC46002E3FD086E81010BDE8A2
:1003D000F08712B90127B7FBF2F7B7FA87FEBEF133
:1003E000000F34D1EB1B3A0C1FFA87FC0121B3FB41
:1003F000F2F8250C02FB183345EA03450CFB08F321
:10040000AB4207D9ED1908F1FF3002D2AB4200F23E
:10041000D1808046ED1AA3B2B5FBF2F002FB105575
:1004200043EA05440CFB00FCA44507D9E41900F19C
:10043000FF3302D2A44500F2B8801846A4EB0C04A6
:1004400040EA08409DE731463046BDE8F087CEF1EE
:10045000200405FA0EF307FA0EF720FA04F83A0C16
:1004600025FA04F448EA0308B4FBF2F14FEA184510
:1004700002FB11441FFA87FC45EA044501FB0CF31B
:10048000AB4200FA0EF409D9ED1901F1FF3080F00A
:100490008A80AB4240F2878002393D44EB1A1FFA52
:1004A00088F5B3FBF2F002FB103345EA034500FB8D
:1004B0000CF3AB4207D9ED1900F1FF386FD2AB4214
:1004C0006DD902383D44EB1A40EA01418FE7C1F192
:1004D000200722FA07F88B4005FA01F448EA0303E3
:1004E00020FA07FE4FEA134CFD404EEA040EB5FB1E
:1004F000FCF94FEA1E440CFB19551FFA83F844EA35
:10050000054509FB08F4AC4202FA01F200FA01FACF
:1005100008D9ED1809F1FF3043D2AC4241D9A9F115
:1005200002091D442D1B1FFA8EFEB5FBFCF00CFBCF
:1005300010554EEA054400FB08F8A04507D9E41819
:1005400000F1FF3529D2A04527D902381C4440EAE2
:100550000940A4EB0804A0FB02894C45C6464D4661
:1005600015D312D056B1BAEB0E0364EB050404FAAE
:1005700007F7CB401F43CC40376074600021BDE8D3
:10058000F0871846F8E69046E0E6C245EAD2B8EBB6
:10059000020E69EB03050138E4E72846D7E7404639
:1005A00091E78146BEE7014678E702383C4445E7DB
:1005B000084608E7A8F102083D442BE7704700BF52
:1005C00008B5032000F02CF800200AF07FFD0AF0A7
:1005D00011FD002008BD0000034A044B11681B7880
:1005E0000B441360704700BFE8400020000000206B
:1005F000014B1868704700BFE840002038B504463A
:10060000FFF7F6FF0546631C1EBF044B1B78E4187A
:10061000FFF7EEFF401B8442FAD838BD00000020EF
:10062000074A0002D36800F4E06023F4E0631B048F
:100630001B0C43F0BF6343F400330343D3607047A4
:1006400000ED00E0194B30B5DC68C4F30224C4F1BE
:100650000703251D042B28BF0423062D4FF0010599
:100660008CBF033C002405FA03F3002803F1FF3399
:1006700001EA030101FA04F105FA04F404F1FF347C
:1006800002EA040242EA01024FEA021205DA00F02D
:100690000F00D2B2064B1A5430BD00F16040D2B206
:1006A00000F5614080F8002330BD00BF00ED00E0A0
:1006B00014ED00E04209012300F01F0003FA00F0EE
:1006C000014B43F82200704700E100E00138B0F12F
:1006D000807F0AD2064BF021064A5860002082F83B
:1006E0002310072298601A6070470120704700BFEE
:1006F00010E000E000ED00E0044B04281A680CBF95
:1007000042F0040222F004021A60704710E000E098
:10071000002337B541F21804019303680546012010
:100720001A5942F480121A511B590193FFF766FFC0
:100730002B68019A1A5103B030BD000070B5044611
:1007400029B14FF40063C3604FF480438360E369D1
:100750002268002BE068A368156808BF4FF4806129
:1007600043EA00032E4818BF0021284043F40073D9
:10077000034301200B4313601568FFF73FFF236815
:10078000402201201D605A605D68FFF737FF236833
:1007900001205D6000259D60DD609A6922F0BE0247
:1007A0001204120C42F080029A619E69FFF726FF44
:1007B000236801209E61DD61DD69FFF71FFF22686C
:1007C0000120184BD56141F2180551590B4043F0F7
:1007D000087343F0040353515659FFF70FFF236882
:1007E0000120114A5E5103F580531A601D68FFF71E
:1007F00005FF226802F580531D60A369012B07D114
:1008000041F21C01535843F4803343F040035350EA
:100810006369064A998811601A68054B1A6070BDB1
:100820000F8120FF233FDEF88020C102408002407C
:1008300044800240F0B590F84540012C4FF002048E
:1008400033D0012580F844404FF4801701F1200493
:1008500080F8455040F2F45E002503F1FF3CC16290
:100860009D420BD1026841F21003D150012380F860
:100870004430002380F845301846F0BD0EFB0526B5
:1008800044F8207C44F8186CC6692EB954F8206CE2
:1008900046F4400644F8206C65452CBF0E462646BB
:1008A0000135203444F8346CDAE72046F0BD2DE9F8
:1008B000F04190F84540012C4FF0020430D0012562
:1008C00080F844404FF0004601F1200480F8455084
:1008D00044F2F457002540F2F45E03F1FF3C8162DC
:1008E0009D420CD1026841F20C03D150012380F8E3
:1008F0004430002380F845301846BDE8F0810EFBF7
:10090000052844F8206C44F8188C65452CBF8846AF
:10091000A04644F81C7C013544F8148C2034DFE7F1
:100920002046BDE8F081000090F84530012B4FF0E3
:100930000203F0B566D0012280F8443080F84520EB
:1009400029B980F8442080F845101046F0BDC36AEC
:100950001C68002C06DA122380F84430002380F84B
:100960004530F2E740F2F454A1422CD9B1FBF4F245
:1009700004FB12142CB30132234C01F2F45140F267
:10098000F456571E04FB02110024C1F30C011D682C
:1009900025F040551D601CB91D6845F080551D604F
:1009A000A7425E6004D11D68596045F000551D6086
:1009B0001D68013445F0004594421D60DB68E6D1B6
:1009C0000DE0012AD8D11A68C1F30C0142F040525F
:1009D00059601A601A6842F000421A60DB68C3620C
:1009E00041F2140203689958490705D5042199502A
:1009F000002141F204029950012380F84430002381
:100A000080F845301846F0BD0CFAFFFF90F84530ED
:100A1000012B4FF0020330B53BD00122052480F8B2
:100A20004430114680F84520836A1A68002A01DBA9
:100A3000013C06D10123002280F8443080F8452093
:100A400027E01A68DD6802F44072B2F5007F03D136
:100A5000036381638562E7E71A6812F4407F826B63
:100A600002D101328263F5E701324363012A8263D6
:100A700008BF03631B68C3F30D43043BC363036BED
:100A80009B6885620364012380F84430002380F86A
:100A90004530184630BD7047704770B5026841F266
:100AA00014060446955915F0400521D00AF064F863
:100AB000236840229A51012384F84430002384F8AB
:100AC0004530236841F214054FF480325A515B5986
:100AD0001B040CD52046FFF7DFFF23684FF40042CC
:100AE0005A51012384F84430002384F8453070BD06
:100AF0009359DA07E5D5FFF7CEFF0123226893511A
:100B000084F8443084F84550DBE7F8B590F8443079
:100B100005461646822B30D002688223890180F870
:100B20004430136901F4F86403F01C012143048A82
:100B3000E402A4B20C4344F001041461FFF758FD31
:100B4000074614F0010007D12B685B699BB2336044
:100B5000012385F84430F8BDFFF74AFDC01BB0F50E
:100B6000803F07D30123032085F84430002385F814
:100B70004530F8BD2B681C69E3E70220F8BD90F80A
:100B80004430422B70B505462ED042238C0192B2E0
:100B900080F8443004F4F864036844F003041869EE
:100BA00000F01C0020432C8A5A61E402A4B20443E2
:100BB0001C61FFF71DFD064614F0010003D101235F
:100BC00085F8443070BDFFF713FD801BB0F5803F02
:100BD00007D30123032085F84430002385F84530EE
:100BE00070BD2B681C69E7E7022070BD0023F7B5D4
:100BF00004460093002800F0DC8090F8443003F0B5
:100C0000FF021BB980F8452009F050FF6A4B5A6C6F
:100C100042F480425A645B6C03F480430193019B6D
:100C2000664B5A6822F400025A605A68216A0A43E5
:100C30005A60236803F580531A6842F001021A6073
:100C4000FFF7D6FC0546236803F580521268D007EB
:100C50001DD41D6901F06EF9594B5A4A25F01C0547
:100C60000344934222D845F0080523684FF400421C
:100C7000002120461D61FFF782FF054668B301256C
:100C800001212046FFF75AFD84F844500BE0FFF79E
:100C9000AFFC401BB0F5FA7FD5D90325002384F8BB
:100CA000445084F84530284603B0F0BD464B474ACF
:100CB0000344934202D845F00C05D6E7444B454A1D
:100CC00003449342D1D9444B444A0344934294BFD2
:100CD00045F0040545F01005C7E7FF20FFF78EFC3F
:100CE0006368002B53D0FFF783FC41F28837064638
:100CF0006A4601212046FFF708FFFFF779FC801BB9
:100D0000B8420BD901212046FFF718FD0123032526
:100D100084F84430002384F84530C4E7009B590729
:100D2000E6D54FF4805200212046FFF728FF002827
:100D3000A5D1FFF75DFC41F2883706466A460121DE
:100D40002046FFF7E2FEFFF753FC801BB842D9D8DC
:100D5000009B9A06F2D56A4610212046FFF7D5FE81
:100D600000288CD1009B13F0040218BF4FF40062DE
:100D70009B074CBF00234FF48043E260A360002137
:100D80002046FFF7DBFC012384F844308BE7A3689F
:100D90002946E26820465B0843EAD20292B2FFF796
:100DA000EEFE00287FF46BAF40F6FF70FFF726FCE5
:100DB000E5E7012577E700BF003802400038014031
:100DC00000D3CEFEBFE1E40040F1E9FD3F787D01B4
:100DD00000796CFCFF596202001F0AFA7FF0FA02E8
:100DE00090F84530012B73B505464FF0020033D023
:100DF00000242B6885F84400012601941A683046C7
:100E000085F8456042F008021A601B680193FFF7FD
:100E1000F5FB019A30462B681A6000941A6842F07C
:100E200004021A601B680093FFF7E8FB2B68284652
:100E3000009A1A60FFF76CFC2A6841F218032046FA
:100E4000D15841F40051D150D15841F00201D15054
:100E500085F8446085F8454002B070BD2DE9F04F3B
:100E60000B6885B0DFF8C081019300236C4ADFF87E
:100E7000BC914FF0010E019C0EFA03FE0EEA04062F
:100E8000B64540F0B3804C6824F01007022F16D10D
:100E90004FEAD30A03F0070B4FF00F0C00EB8A0A5E
:100EA0004FEA8B0BDAF820500CFA0BFC25EA0C0CFD
:100EB0000D6905FA0BF545EA0C05CAF820504FEA12
:100EC000430A0325D0F800B004F0030C05FA0AF534
:100ED000013F0CFA0AFCED43012F0BEA050B4CEA2B
:100EE0000B0CC0F800C011D8876807EA050BCF6863
:100EF00007FA0AFC4CEA0B078760476827EA0E0EE0
:100F0000C4F300179F4047EA0E074760C7683D409B
:100F10008F6807FA0AF73D43C560E50066D5D8F843
:100F2000445023F0030703F0030E4FF00F0C45F479
:100F3000804507F180474FEA8E0EC8F8445007F508
:100F40009C37D8F8445005F480450395039D0CFA6E
:100F50000EF5D7F808A02AEA050C324DA8424CD06D
:100F600005F58065A8424AD005F58065A84248D0BD
:100F700005F58065A84246D005F58065A84244D0B5
:100F8000484544D005F50065A84242D005F5806586
:100F9000A84240D005F58065A8423ED005F58065A1
:100FA000A84214BF0A25092505FA0EF514F4803F5E
:100FB00045EA0C05BD606FEA060715680CBF3D40A9
:100FC000354314F4003F156055680CBF3D40354370
:100FD00014F4801F556095680CBF3D403543A40252
:100FE0009560D56854BF3D403543D5600133102B23
:100FF0007FF43FAF05B0BDE8F08F0025D4E70125B1
:10100000D2E70225D0E70325CEE70425CCE7052566
:10101000CAE70625C8E70725C6E70825C4E700BFD5
:10102000003C014000000240003802400014024031
:101030000AB1816170470904FBE72DE9F0410446DC
:101040008AB000286BD090F8BD3303F0FF021BB9C3
:1010500080F8BC230AF056F9254603236E4604F1B6
:10106000040855F8100B84F8BD3301F0F2FD0FCDE4
:101070000FC60FCD0FC695E8030004F1100586E8F2
:10108000030098E80E002068012601F0A1FD002170
:10109000206801F0E4FD002122462346084683F83B
:1010A0003C101C33D984013183F821600F2983F867
:1010B00023009862D8625863F1D100231F4682F85A
:1010C000FC31013382F8FD711C320F2B82F8E37181
:1010D000C2F8E871C2F8EC71C2F8F471EFD10FCD2B
:1010E0006E460FC60FCD0FC695E8030086E80300D5
:1010F00098E80E00206801F0F3FD012384F83870B1
:1011000084F8BD33636A012B02D1204600F09FFCB6
:10111000206802F007F900200AB0BDE8F081012044
:10112000FAE790F8BC33012B10B504460CD001232C
:1011300080F8BC33006802F0E9F8206801F083FD14
:10114000002084F8BC0310BD022010BD2DE9F04F33
:10115000076887B004463846D7F840A002F01DF96A
:101160000290002840F04F81206802F0E7F8002844
:1011700000F04981206802F0E1F8850704D5226873
:10118000536903F002035361206802F0D7F810F4AA
:1011900000250CD007F53068264600252068C1469A
:1011A00002F0D0F80390039B002B40F02F812068C1
:1011B00002F0C4F842030BD52068264602F0CAF8B4
:1011C00007F5106983460025BBF1000F40F0A181AF
:1011D000206802F0B3F8002815DAD7F8043823F0B5
:1011E0000103C7F8043894F8F033012B40F027824C
:1011F0000021204684F8F0130AF0DCF922685369D4
:1012000003F000435361206802F098F803050BD502
:10121000D7F80838DE0702D520460AF0DFF8226842
:10122000536903F400635361206802F087F80001FA
:1012300014D523685A6902F000625A6194F8F023C9
:10124000002A40F000825B6D01212046C3F3830336
:1012500084F8F013C4F8F4330AF0ACF9206802F013
:101260006DF8C10435D507F5006673681021206854
:1012700023F00103736001F009FD606807F5106356
:101280004FF67F31029A824240F0E181F36943F0E8
:101290000113F361236B002B00F0ED81D6F884304D
:1012A00043F00B03C6F88430736C43F00B03736494
:1012B000D7F8003804F57072217C23F4FE632068AF
:1012C000C7F8003802F088F82268536903F48053A5
:1012D0005361206802F032F882041DD5206802F0C4
:1012E00060F82068C36823F47053C36001F0B0FD58
:1012F000002840F0C9814FF400732268E060636108
:10130000D36843F41053D36020460AF056F822689D
:10131000536903F400535361206802F00FF8C306C9
:101320002BD52268936923F0100393613E6AC6F3BC
:10133000434306F00F09022B40F01C8247F6F0737E
:101340001E4215D04FF01C08C6F30A16384608FB9B
:1013500009483246D8F8081201F062FFD8F808327E
:101360003344C8F80832D8F814321E44C8F814625E
:101370002268936943F010039361206801F0DEFF57
:10138000070707D520460AF014F82268536903F0CE
:1013900008035361206801F0D1FFC60208D5E9B205
:1013A00020460AF03BF82268536903F48013536126
:1013B000206801F0C3FF800208D5E9B220460AF098
:1013C00029F82268536903F400135361206801F07F
:1013D000B5FF410007D520460AF024F8226853697A
:1013E00003F080435361206801F0A8FF42070AD54B
:1013F00023685D686B0702D520460AF017F823685A
:101400005A6815435D6007B0BDE8F08F039BD807AD
:1014100077D5EAB220681146049201F0A3FF10F0DC
:10142000010F834639D0B54B0121049A9A45C9F87A
:101430000810216918D9012916D1D8F80810090413
:1014400003D54FF40041C9F80810D9F81010D6F8A8
:101450000402C1F31201411AC6F81412D6F8081298
:101460000844C6F8080201E00129EED0A44B9A45D1
:101470002DD1D8F808100B0429D54FF40042C9F833
:1014800008202169012908D13DB9D4F8102222B9D8
:1014900004F57072206801F09FFF1BF0080F24D044
:1014A000974B9A4518D1D8F80820100403D54FF46B
:1014B0000042C9F808202269012A10D1D8F8082072
:1014C00011040CD54FF40042C9F8082007E011467A
:1014D000204609F05DFFD4E7884B9A45EBD82046BB
:1014E00009F050FF0822C9F808201BF0100F02D0A5
:1014F0001022C9F808201BF0200F02D02023C9F8C1
:101500000830039B013509F120091C365B08039361
:1015100049E61BF0010F71D0EBB220681946039326
:1015200001F029FF10F0010F804622D0012005F0C4
:101530000F02D7F8343800FA02F2039923EA0203C3
:10154000C7F834382369C9F808008342204601BF30
:10155000B36C726C9B18B36409F023FF21690129F5
:1015600007D135B9236D23B904F57072206801F0F5
:1015700033FF18F0080F02D00823C9F8083018F01C
:10158000100F02D01023C9F8083018F0400F02D015
:101590004023C9F8083018F0020F02D00223C9F81E
:1015A000083018F0800F29D02368726D0493336DD2
:1015B000A3EB0208736C984528BF9846049B08F17A
:1015C000030A03F510634FEA9A0A03EB45130593E8
:1015D000059B9B699BB2534504D9726D336D934251
:1015E00000D993B9B8F1000F08D1049B0121D3F8B9
:1015F0003428A94022EA0102C3F8342801354FEA11
:101600005B0B1C3609F12009DEE5A3EB0208736CC5
:10161000039A9845049828BF9846237C00931FFAA4
:1016200088F3B16C08F1030A01F014FDB36C4FEAC2
:101630009A0A4344B364736D43447365C8E7204614
:1016400009F0E4FEDAE5204609F0C8FE06E69960F6
:10165000203353F8202C22F4001243F8202CC3F836
:10166000E811D3F8E02122F40012C3F8E021029A35
:101670000132029206E6736943F02B03736133690A
:1016800043F00B03336113E60323E36040236361FC
:1016900000F050FC1B4B1C4A03449342236804D8BF
:1016A000DA6842F47052DA602EE6184A18490244A9
:1016B0008A4203D8DA6842F46052F4E7A0F5740273
:1016C0001449A2F510528A4203D8DA6842F4505203
:1016D000E9E7A0F183721049A2F5E7428A4203D8F4
:1016E000DA6842F44052DEE70C4A0D4902448A426D
:1016F00018D8DA6842F43052D5E700BF0A30544FA8
:101700000A31544F405327FFFF340C00401E1BFF8B
:101710003F420F007F4F12001FD6130060B6E5FE58
:101720005FE316001B4A1C4902448A4203D8DA6868
:1017300042F42052B7E7194A194902448A4203D8B1
:10174000DA6842F41052AEE7A0F1B7721549A2F57B
:1017500058528A4203D8DA6842F40052A3E7124A88
:10176000124902448A42DA6894BF42F4E05242F4D9
:10177000C05298E7062B7FF4FBAD4FF01C080822FF
:1017800004F57071384601F04BFD08FB0948C6F3BB
:101790000A16E8E500D3CEFE3F771B00C05BB3FE20
:1017A000BF9121001F753800E05459FEDF9C4100B5
:1017B00090F8BC23012A10B504460BD0012280F812
:1017C000BC2384F83810006801F090FD002084F8F4
:1017D000BC0310BD022010BD70B5044601F00F001F
:1017E0001C2611F0800FC5B2C0B206FB05411DBF1B
:1017F00006FB054501263C3101F5FE7105BF06FBE0
:101800000545002685F83D6085F8FD618A604A78C7
:101810000870CB7002B1C880022B04BF00230B718B
:1018200094F8BC33012B09D00123206884F8BC3321
:1018300001F01CFB002084F8BC0370BD022070BDC9
:1018400001F00F0311F0800FDAB210B504464FF02B
:101850001C0000FB02411BBF00FB0242012000FBF9
:1018600002423C3105BF01F5FE71002082F83D00C7
:1018700082F8FD010B7094F8BC33012B09D00123D1
:10188000206884F8BC3301F033FB002084F8BC03EB
:1018900010BD022010BD38B501F00F051C2404FB5B
:1018A000050104FB050401F5FE71C4F810320023A4
:1018B000C4F80822C4F8143284F8FD3184F8FC51CD
:1018C00003690068012B08BFC4F80C22DAB21DB905
:1018D00001F040FB002038BD01F0D0FBFAE71C23EB
:1018E00001F00F0103FB0101B1F81402704738B594
:1018F00001F00F051C2404FB050104FB05043C3129
:1019000023650023A2646365012384F83C5084F8B6
:101910003D3003690068012B08BFE264DAB21DB9EB
:1019200001F018FB002038BD01F0A8FBFAE738B53C
:1019300001F00F05436804469D422ED811F0800F38
:101940004FF01C021FD002FB050302FB0501012220
:101950003C3381F83D2001221D709A7094F8BC132D
:1019600091421CD084F8BC231946206801F066FC23
:101970002DB904F57072217C206801F02DFD002046
:1019800084F8BC0338BD02FB010302FB0101002205
:1019900003F5FE7381F8FD21DDE7012038BD02204B
:1019A00038BD38B501F00F02436804469A4225D885
:1019B0001C2311F0800F4FF0000503FB02010FBF45
:1019C000002003FB020301203C3105BF01F5FE713D
:1019D00003FB024383F83D0083F8FD018D700A701C
:1019E00094F8BC33012B0BD00123206884F8BC335E
:1019F00001F051FC84F8BC53284638BD012038BDA5
:101A0000022038BD70B50468636A21B943EA024315
:101A1000A362002070BDA06A4D1E03EB104300209E
:101A2000461CC0B2854206D83F3143EA024304EB6C
:101A300081046360EDE7403004EB8000406803EB15
:101A400010433046ECE703680020596270470121DB
:101A500002680346C0F8F813002083F8F003936986
:101A600043F000639361536D43F0805343F00303ED
:101A7000536570472DE9F341044618B9012002B0BF
:101A8000BDE8F0810368D80710D4236899075ED4B5
:101A90002368190700F1A38023685A0700F1C48066
:101AA000A269002A40F02E810020E8E7934B9A6853
:101AB00002F00C02042A07D09A6802F00C02082AED
:101AC0000AD15B685A0207D58C4B1B689B03DCD597
:101AD0006368002BD9D1D1E76368884DB3F5803FA7
:101AE00011D12B6843F480332B60FEF781FD834DC9
:101AF00006462B689F03C8D4FEF77AFD801B642836
:101B0000F7D90320BBE79BB92B6823F480332B6004
:101B10002B6823F480232B60FEF76AFD06462B68B2
:101B20009803B2D5FEF764FD801B6428F7D9E8E777
:101B3000B3F5A02F2B6803D143F480232B60D0E7AB
:101B400023F480332B602B6823F48023CCE76B4B8A
:101B50009A6812F00C0F07D09A6802F00C02082A5B
:101B600011D15B6859020ED4644B1A68920702D5F2
:101B7000E268012A82D11A68216922F0F80242EA59
:101B8000C1021A6084E7E3685C4DBBB12B6843F087
:101B900001032B60FEF72CFD06462B689F0707D537
:101BA0002B68226923F0F80343EAC2032B606FE736
:101BB000FEF71EFD801B0228EFD9A2E72B6823F059
:101BC00001032B60FEF714FD06462B6898077FF58E
:101BD0005FAFFEF70DFD801B0228F6D991E7636920
:101BE000464D83B16B6F43F001036B67FEF700FD59
:101BF00006466B6F9B073FF54FAFFEF7F9FC801B66
:101C00000228F6D97DE76B6F23F001036B67FEF7BF
:101C1000EFFC06466B6F9F077FF53EAFFEF7E8FCD3
:101C2000801B0228F6D96CE7344B1A6CD00027D4FD
:101C30001A6C012642F080521A641B6C03F0805328
:101C40000193019B2E4D2B68D9051BD5A3682B4D05
:101C5000012B27D12B6F43F001032B6741F288350D
:101C6000FEF7C6FC254F80463B6F9B073FD5002EF5
:101C70003FF416AF214A136C23F0805313640FE72F
:101C80000026DFE72B6843F480732B60FEF7B0FC7F
:101C900007462B68DA05D9D4FEF7AAFCC01B6428D6
:101CA000F7D92EE7ABB92B6F41F2883823F0010347
:101CB0002B672B6F23F004032B67FEF799FC074675
:101CC0002B6F9807D3D5FEF793FCC01B4045F7D97F
:101CD00017E7052B2B6F03D143F004032B67B9E7FC
:101CE00023F001032B672B6F23F00403B5E7FEF706
:101CF0007FFCA0EB0800A842B6D902E700380240FA
:101D000000700040244DAB6803F00C03082B3FF437
:101D1000B5AE2B68022A23F080732B602ED1FEF71C
:101D200067FC06462B68990122D4226AE3691343B3
:101D3000626A43F0005343EA8213E26A43EA0263B1
:101D4000A26A154C5208013A43EA02436B602B68C1
:101D500043F080732B60FEF74BFC054623689A0125
:101D60003FF5A2AEFEF744FC401B0228F6D9C8E6B8
:101D7000FEF73EFC801B0228D4D9C2E6FEF738FCF1
:101D800004462B689B017FF58FAEFEF731FC001BEC
:101D90000228F6D9B5E600BF00380240134908B55D
:101DA0008B6803F00C03042B03D0082B03D01048DE
:101DB00008BD104808BD4A684B68496802F03F02F8
:101DC00013F48003C1F388111ABF0A48002308489E
:101DD000A1FB0001FEF76CFA044B5B68C3F30143FF
:101DE00001335B00B0FBF3F008BD00BF00380240D8
:101DF0000024F40000127A002DE9F0410D4604465B
:101E000010B90120BDE8F081464A136803F00F03C2
:101E10008B4228D321688F0730D4C80743D4414A66
:101E2000136803F00F039D4267D32268510770D4F3
:101E3000130707D53C4A2169936823F4604343EABA
:101E4000C1039360FFF7AAFF374B384A9B68C3F37F
:101E50000313D35CD840364B1860002009F036F9E4
:101E60000020BDE8F081136823F00F030B431360DB
:101E7000136803F00F039942C3D1CBE711F0040FAD
:101E8000294B03D09A6842F4E0529A600E0703D5BA
:101E90009A6842F460429A609A68A06822F0F00260
:101EA00002439A60B9E761681F4B01291A681CD187
:101EB00012F4003FA5D09A6841F288381A4E22F0F9
:101EC00003020A439A60FEF793FB0746B368626811
:101ED00003F00C03B3EB820FA1D0FEF789FBC01B0C
:101EE0004045F3D90320BDE8F081022902D112F068
:101EF000007FDFE712F0020FDCE7136823F00F0327
:101F00002B431360136803F00F039D427FF479AFF6
:101F10008BE70549E0688B6823F4E05303438B604B
:101F200086E700BF003C0240003802406EDB00083C
:101F30001C010020014B1868704700BF1C010020E5
:101F4000044B054A9B68C3F38223D35C034A1068A1
:101F5000D8407047003802407EDB00081C0100209A
:101F6000044B054A9B68C3F34233D35C034A1068B1
:101F7000D8407047003802407EDB00081C0100207A
:101F80000F2303600B4B9A6802F0030242609A68C9
:101F900002F0F00282609A6802F4E052C2609B682C
:101FA000DB0803F4E0530361034B1B6803F00F03EA
:101FB0000B60704700380240003C02402DE9F743B7
:101FC0000268044612F001060BD0B84B996821F460
:101FD00000019960466B99683143B6FA86F6760936
:101FE000996012F4002512D0B049E56BD1F88C301D
:101FF000B5F5801F23F4401308BF012643EA05030B
:1020000016BFB5FA85F500256D09C1F88C30D102EF
:1020100010D5A648216CD0F88C30B1F5800F23F490
:10202000400343EA0103C0F88C3000F085810029A9
:1020300008BF012512F0807F18BF0126920631D516
:102040009A4B9B4F1A6C42F080521A641B6C03F03F
:1020500080530193019B3B6843F480733B60FEF720
:10206000C7FA80463B68DB0540F168818F4F3B6FC4
:1020700013F4407340F06D81236B03F44072B2F5AA
:10208000407F8A4A40F08B81916823F0704021F4B0
:10209000F81120F4407001439160C3F30B03116FFA
:1020A0000B4313672368DA060CD5804AD2F88C10EC
:1020B00021F08071C2F88C10D2F88C10A06B014313
:1020C000C2F88C105F0408D57849606ED1F8902072
:1020D00022F440320243C1F89020180408D5734915
:1020E000A06ED1F8902022F440220243C1F8902043
:1020F000D90308D56D49E06ED1F8902022F4401242
:102100000243C1F890209A0308D56849206FD1F89E
:10211000902022F440020243C1F890205F0608D5C7
:102120006249606CD1F8902022F003020243C1F8AA
:102130009020180608D55D49A06CD1F8902022F0B7
:102140000C020243C1F89020D90508D55749E06C2C
:10215000D1F8902022F030020243C1F890209A0575
:1021600008D55249206DD1F8902022F0C0020243D8
:10217000C1F890205F0508D54C49606DD1F89020DA
:1021800022F440720243C1F89020180508D547494F
:10219000A06DD1F8902022F440620243C1F8902053
:1021A000D90408D54149E06DD1F8902022F440527D
:1021B0000243C1F890209A0408D53C49206ED1F81A
:1021C000902022F440420243C1F890205F0208D5DB
:1021D0003649A06FD1F8902022F080620243C1F806
:1021E000902098020CD53148E16FD0F89020B1F1E1
:1021F000006F22F0006208BF01250A43C0F890205A
:1022000013F0080F18BF0125590308D52749606F3F
:10221000D1F8902022F040720243C1F890201A02B7
:1022200009D52249D4F88000D1F8902022F08052BC
:102230000243C1F89020012E00F0B580B3F1007F79
:1022400000F0B180012D75D1184D2B6823F080531B
:102250002B60FEF7CDF906462B689F0000F1278121
:1022600021680E0301D5E36B1BB1CD0222D5236C8F
:1022700003BB0E4AD2F88830D2F8880003F440330A
:1022800000F0E0400343606943EA8013A06943EA39
:102290000063C2F88830D2F88C30A06A23F4F85377
:1022A000013843EA0023C2F88C3003E000380240D2
:1022B00000700040880215D5E36FB3F1006F11D1B3
:1022C000824AD2F88830D2F8880003F0706300F0B8
:1022D000E0400343606943EA8013206A43EA004315
:1022E000C2F888300A0719D57849D1F88820D1F882
:1022F000883002F0706203F440331343626943EAAA
:102300008213E26943EA0273C1F88830D1F88C3055
:10231000E26A23F440331343C1F88C306B4C2368DA
:1023200043F080532360FEF763F9054623689B0062
:1023300040F1C480002009E001267BE6FEF758F951
:10234000A0EB080064287FF68DAE032003B0BDE843
:10235000F083226B02F4407293423FF48DAE3B6FE8
:102360003A6F23F4407342F480323A673A6F22F4B2
:1023700080323A673B673B6FD8077FF57DAEFEF74B
:1023800037F941F2883980463B6F99073FF574AEC3
:10239000FEF72EF9A0EB08004845F5D9D5E791687E
:1023A00021F4F81178E6494E336823F080633360F6
:1023B000FEF71EF9074633681B0172D42268D7075F
:1023C00012D5636B83B9D6F88430D6F8841003F441
:1023D000403301F070610B43616843EA8113A168E7
:1023E00043EA0173C6F88430160303D5E36BB3F5F3
:1023F000801F05D0D0021ED5236CB3F5800F1AD1F3
:102400003249D1F88430D1F8840003F4403300F02D
:10241000E0400343606843EA8013E06843EA0063F6
:10242000C1F88430D1F88C00636A20F01F00013BB2
:102430000343C1F88C30D10111D52449D1F884303F
:10244000D1F8840003F0706300F0E040034360685B
:1024500043EA8013206943EA0043C1F884309201C3
:102460000DD5236962681B0443EA8213E26843EADC
:102470000263A26843EA0273144AC2F88430134E1E
:10248000336843F080633360FEF7B2F80746336881
:102490001B013FF5D7AEFEF7ABF8C01B6428F6D999
:1024A00053E7FEF7A5F8C01B642884D94DE7FEF773
:1024B0009FF8801B64287FF6CFAE46E7FEF798F8BA
:1024C000401B64287FF632AF3FE700BF0038024070
:1024D000704703680020DA6842F00102DA601A6887
:1024E00042F001021A6070477047704770477047AA
:1024F00003681A69910710B504460FD5DA68920788
:102500000CD56FF002021A6101229B6902779907CC
:1025100000F08580FFF7E9FF0023237723681A691D
:10252000520710D5DA6850070DD56FF00402204627
:102530001A6102229B69227713F4407F75D0FFF75E
:10254000D4FF0023237723681A6911070FD5DA68AF
:1025500012070CD56FF0080220461A610422DB69CD
:1025600022779B0767D0FFF7C0FF002323772368FC
:102570001A69D00610D5DA68D1060DD56FF01002B1
:1025800020461A610822DB69227713F4407F58D075
:10259000FFF7ABFF0023237723681A69D20708D51A
:1025A000DA68D00705D56FF0010220461A6108F0FD
:1025B00015FD23681A69110608D5DA68120605D5D3
:1025C0006FF0800220461A6100F0C5F823681A698E
:1025D000D00508D5DA68110605D56FF080022046CF
:1025E0001A6100F0B8F823681A69520608D5DA684B
:1025F000500605D56FF0400220461A61FFF777FFBD
:1026000023681A69910622D5DA6892061FD56FF001
:10261000200220461A61BDE8104000F09BB8FFF789
:1026200063FF2046FFF762FF76E7FFF75DFF204676
:10263000FFF75CFF85E7FFF757FF2046FFF756FFE0
:1026400093E7FFF751FF2046FFF750FFA2E710BDC9
:10265000304A0368904212D0B0F1804F0FD0A2F5FB
:102660007C4290420BD002F58062904207D002F586
:102670008062904203D002F5784290421DD14A68B0
:1026800023F070031343234A904204D123F4407390
:10269000CA68134328E0B0F1804FF7D01E4A904239
:1026A000F4D002F580629042F0D002F58062904250
:1026B000ECD002F578429042E8D0184A9042E5D03A
:1026C00002F580629042E1D002F580629042DDD056
:1026D000A2F598329042D9D002F580629042D5D0CE
:1026E00002F580629042D1D04A6923F080031343FF
:1026F00003608B68C3620B688362064B984206D006
:1027000003F58063984202D00123436170470B694F
:102710000363F9E70000014000040040004001406D
:1027200010B50446A0B190F83D3003F0FF021BB98C
:1027300080F83C20FFF7CCFE02232068211D84F89E
:102740003D30FFF785FF0123002084F83D3010BDA8
:10275000012010BD704770472DE9F041069D0446E9
:102760000F46164698462168CA6937EA02030CBF2D
:1027700001220022B24202D00020BDE8F0816B1C91
:10278000F2D09DB9236803201A6822F4D0721A602F
:102790009A6822F001029A60202384F8693084F854
:1027A0006A30002384F86830BDE8F081FDF720FF2F
:1027B000A0EB08008542D6D8E4E7000038B504460F
:1027C0000568C3692169A26828680A4361690A43E8
:1027D00093491A430140206A0A43E1682A606A6803
:1027E00022F440520A436A60A269A968024321F4B4
:1027F00030610A43AA608B4A954219D102F594329E
:102800008949D2F8902002F00302B3F5004F8A5CA8
:1028100040F0B380082A00F2AD80DFE812F0260015
:102820007B00E900AB00F500AB00AB00AB00FB00A8
:102830007E4A954207D102F5FA327D49D2F89020BE
:1028400002F00C02E1E77B4A95422BD102F5F83207
:10285000D2F8902002F03002102A00F0D28016D870
:10286000DAB9B3F5004F40F09F80FFF769FB61686C
:102870004A0802EB4003B3FBF1F39BB2002023F0C4
:102880000F02C3F3420321681343CB6038BD202AF3
:1028900000F0AB80302A00F0BA80B3F5004F69D069
:1028A000012038BD644A95420ED102F5F632D2F8C5
:1028B000902002F0C002402A00F0A380D0D9802AE4
:1028C00000F09380C02AE6E75C4A954210D102F5F9
:1028D000F432D2F8902002F44072B2F5807F00F01A
:1028E0009080BDD9B2F5007F7FD0B2F5407FD2E7AE
:1028F000534A954217D102F59232D2F8902002F451
:102900004062B2F5806F7CD007D8002AC5D1B3F5FC
:10291000004F54D1FFF724FBA9E7B2F5006F64D054
:10292000B2F5406FB7E7474A95420FD102F5E03262
:10293000D2F8902002F44052B2F5805F61D08FD976
:10294000B2F5005F51D0B2F5405FA4E73E4A954230
:10295000A3D102F5DE32D2F8902002F44042B2F563
:10296000804F4ED07FF67CAFB2F5004F3DD0B2F530
:10297000404F90E70120002381E7082A90D801A367
:1029800053F822F0A9290008BF290008C52900082A
:10299000A1280008DB290008A1280008A1280008B8
:1029A000A1280008E1290008FFF7CAFA636800EBD4
:1029B0005300B0FBF3F080B2E860002038BDFFF7B1
:1029C000CFFAF3E76268530803F5740303F5105375
:1029D000B3FBF2F39BB2EB60EFE7FFF7DFF9E5E75C
:1029E0006268530803F50043F2E7B3F5004FE9D1FD
:1029F0006068430803F1F47303F59043B3FBF0F30D
:102A00003BE7B3F5004FE8D1FFF7C8F92FE7B3F57F
:102A1000004FE5D16068430803F58033EEE700BF5F
:102A2000F369FFEF00100140F8C5000800440040C2
:102A3000FCC5000800480040004C00400050004029
:102A40000014014000780040007C0040436ADA072F
:102A500010B506D50168846A4A6822F40032224320
:102A60004A609C0706D50168C46A4A6822F480322D
:102A700022434A60590706D50168046B4A6822F46C
:102A8000802222434A601A0706D50168446B4A68CF
:102A900022F4004222434A60DC0606D50168846BBA
:102AA0008A6822F4805222438A60990606D501681A
:102AB000C46B8A6822F4005222438A605A0610D5F9
:102AC0000168046C4A68B4F5801F22F4801242EA5F
:102AD00004024A6005D14A68446C22F4C0022243D1
:102AE0004A601B0606D50268816C536823F40023F4
:102AF0000B43536010BD37B500250446C566FDF78E
:102B000077FD226803461268120709D420230020AB
:102B100084F8693084F8680084F86A3003B030BD06
:102B20006FF07E424FF40011204600922A46FFF7D4
:102B300013FE0028EAD00320F0E710B5044660B386
:102B400090F8693003F0FF021BB980F8682008F0A4
:102B500097FA22682423204684F86930136823F00A
:102B600001031360FFF72AFE012816D0636A13B130
:102B70002046FFF76BFF236820465A6822F49042F4
:102B80005A609A6822F02A029A601A6842F001029A
:102B9000BDE810401A60FFF7AEBF012010BD000075
:102BA0000A4B013B01D1032070470269002AF8DA81
:102BB0000369064A43F001030361013AF3D0036954
:102BC00013F00103F9D11846704700BF410D03000F
:102BD00084B038B505AD044685E80E000A9B012B8C
:102BE00027D1836B23F480338363C36823F4840386
:102BF00023F04003C360C36823F44013C360119BF8
:102C0000012B03D1C36843F48013C3602046FFF750
:102C1000C7FF089B012B07D1A36843F00603A360FD
:102C2000A36843F02003A3600020BDE8384004B04F
:102C30007047C36843F04003C360FFF7B1FF4FF430
:102C40008033A363E5E7836843F0010383600020DA
:102C50007047836823F0010383600020704708B544
:102C6000C368012923F0C043C36008D1C36843F09F
:102C70000053C3603220FDF7C1FC002008BD19B924
:102C8000C36843F08043F4E7012008BD8901074A87
:102C900041F020010161013A05D0036913F02003DE
:102CA000F9D1184670470320704700BF410D03005B
:102CB0001023064A0361013A05D0036913F010039B
:102CC000F9D1184670470320704700BF410D03003B
:102CD000D0F800381943C0F80018002070470000F1
:102CE00084B02DE9F843044609A8884680E80E0020
:102CF00000230B9A0C9F0E991D46139E03F1400072
:102D0000013304EB80000F2B4560F7D1A36B43F434
:102D10000013A3635EB9A36B23F40013A3632368BA
:102D200043F040032360236843F0800323600023C3
:102D3000012904F50065C4F8003ED4F80038C4F851
:102D4000003858D1002A54D100212046FFF7C0FF97
:102D500010212046FFF79AFF2046FFF7A9FF002326
:102D600004F510624FF0904019464FF0006E4FF698
:102D70007F3C2B616B61EB61434540D1002104F541
:102D800030624FF0904E4FF0006C08464FF67F389F
:102D90008B4246D12B69012F23F480732B6107D11D
:102DA000294B2B632B6B43F4803343F003032B63DA
:102DB0000023A3616FF0804363611FB9A36943F0EF
:102DC0001003A361A269214B1343A3610F9B1BB1A5
:102DD000A36943F00803A361012E05D1A36943F061
:102DE000804343F00403A3610020BDE8F84304B02E
:102DF00070470121A9E70329A4D00321A5E7D2F850
:102E00000090B9F1000F0ADA3BB9C2F800E0116195
:102E10000133C2F808C02032AEE71060F7E7116056
:102E2000F5E7D2F80090B9F1000F0BDA39B9C2F822
:102E300000C010610131C2F808802032A8E7C2F852
:102E400000E0F6E71060F4E70001800000383C8005
:102E5000D0F8083813F0060007D09B0704D40428E4
:102E600014BF0020022070470320704770B54A78D5
:102E700000F500630C78012ADE6904F00F051BD110
:102E8000AA4000EB44103243DA61D0F800391A044A
:102E900010D48B68C978C3F30A03D0F8002943F033
:102EA000805343F4004343EA814343EA845313438A
:102EB000C0F80039002070BD4FF4803200EB4410A0
:102EC000AA403243DA61D0F8003B1B04F2D48B688D
:102ED000C978C3F30A03D0F8002B43F0805343F4BE
:102EE000004343EA81431343C0F8003BE2E700009C
:102EF00030B54B7800F500620C78012BD16B04F0F3
:102F00000F0510D1AB4000EB4410DB431940D163F7
:102F1000D1690B40D3610D4BD0F800291340C0F8A4
:102F20000039002030BD4FF4803300EB4410AB403B
:102F3000DB431940D163D1690B40D361044BD0F816
:102F4000002B1340C0F8003BEBE700BF007833ECE8
:102F50000078F3EFF0B54B780C78012B4E694FF009
:102F600020033B4F4FD113FB040326BBD3F810596A
:102F7000012A25F0FF5525F4C015C3F81059D3F8E0
:102F8000105945F40025C3F81059D3F8105907EA31
:102F90000507C3F8107904D100EB44130A69C3F89C
:102FA000142900EB4410D0F8002942F00442C0F884
:102FB00000290020F0BD03F510631D692F401F613B
:102FC0001D6925F0FF5525F4C0151D618D68AE42C1
:102FD00088BF4D61012A1D694E6945F400251D61B8
:102FE000C6F312051F6945EA07051D61D4D0002EFE
:102FF000D7D004F00F050123D0F83418AB400B43B1
:10300000C0F83438CDE713FB040000F530631C69C9
:1030100027401F611C6924F0FF5424F4C0141C6174
:103020008C6806B14C611D69C4F31204012A45F491
:1030300000251D611D6944EA05041C6101D1CA68AF
:103040005A61D0F8003B43F00443C0F8003BB0E7BE
:103050000000F8FF10B59DF808404CB9033300EBB1
:10306000023023F0030300F580500B44994201D154
:10307000002010BD51F8042B0260F7E7F7B54B783C
:1030800020240E78012B644F4B6914FB06047BD17E
:10309000002B3ED104F51065D4F8104924F0FF54FC
:1030A00024F4C0142C612C6944F400242C612C6994
:1030B00027402F61012A56D100EB46140D69C4F850
:1030C0001459CF78012F10D1D0F8084814F4807F1C
:1030D0004FF0200414FB0604D4F800590CBF45F04F
:1030E000005545F08055C4F8005900EB4614012FF7
:1030F000D4F8005945F00445C4F8005906D10C78BD
:103100009BB200922246C968FFF7A4FF002003B0DB
:10311000F0BDD4F8105904F510642F4027612569DB
:103120008F6825F0FF5525F4C0152561DD19D4F809
:1031300010E0013DB5FBF7F7384D05EAC74545EA14
:103140000E052561C3F3120527693D432561CD783E
:10315000012D5ED1256925F0C0452561256945F021
:1031600000552561A6E7CC78012CAAD0002BA8D069
:103170000C78D0F834E804F00F050124AC4044EAA0
:103180000E04C0F834489CE704F5306635692F40DA
:103190003761356925F0FF5525F4C01535618D6817
:1031A0001BBB3369C5F312051D433561336943F415
:1031B00000233361012A01D1CB687361CB78012BE5
:1031C0000CD1D0F8083813F4807FD4F8003B0CBF42
:1031D00043F0005343F08053C4F8003BD4F8003B65
:1031E00043F00443C4F8003B90E72B440B4FD6F860
:1031F00010E0013BB3FBF5F307EAC3479BB247EA94
:103200000E075D433761C5F3120537693D433561EC
:10321000D0E7012AAAD14FE70000F8FF0000F81F0D
:10322000033200F5805022F003020A44914201D19A
:1032300008467047036841F8043BF7E74B780A7883
:10324000012B4FF0200313FB020012D1D0F80039FC
:10325000002B06DB2AB1D0F8003923F08043C0F8F8
:103260000039D0F8003943F40013C0F800390020C9
:103270007047D0F8003B002B06DB2AB1D0F8003BAA
:1032800023F08043C0F8003BD0F8003B43F4001328
:10329000C0F8003BEBE74B780A78012B4FF0200396
:1032A00013FB020011D1D0F8003923F40013C0F849
:1032B0000039CB78023B012B05D8D0F8003943F018
:1032C0008053C0F8003900207047D0F8003B23F449
:1032D0000013C0F8003BCB78023B012BF3D8D0F8A9
:1032E000003B43F08053C0F8003BECE7D0F80038D7
:1032F000090123F4FE6301F4FE61C0F80038D0F840
:1033000000381943C0F800180020704708B5D0F8FD
:10331000043823F00203C0F804380320FDF76EF9E7
:10332000002008BD08B5D0F8043843F00203C0F807
:1033300004380320FDF762F9002008BD4269806966
:1033400010407047D0F8183800F50060C069184088
:10335000000C7047D0F8183800F50060C0691840BC
:1033600080B2704700EB411100F50060D1F8082BE6
:1033700040691040704710B5D0F81048D0F8343884
:1033800000EB411001F00F0100F51060CB408068A8
:10339000DB01DBB22343184010BD406900F001009F
:1033A0007047D0F8003923F4FF6323F00703C0F817
:1033B000003900F500639A6802F00602042A05D17C
:1033C000D0F8002942F00302C0F800295A68002012
:1033D00042F480725A60704710B500240129C0F889
:1033E000104BD0F8104B44F40024C0F8104BD0F828
:1033F000104B44F01804C0F8104BD0F8104B44F0B8
:10340000C044C0F8104B05D14FF08023C0F8142BF6
:10341000C0F8003B002010BDD0F8943210B5D0F8B1
:1034200090425BB194F80002FF2807D09B682146C8
:1034300094F801229847FF2384F80032002010BD41
:1034400043230380004870473C000020432303804F
:1034500000487047800000204323038000487047E5
:10346000D00000200A23038000487047C4000020D9
:1034700038B50546D0F8904208F096F8D5F8903265
:10348000C4F80C024BB1D5F8943204F50371D4F8AA
:103490000402DB689847002038BD022038BDF8B52B
:1034A000D0F89062D6B1142303FB0103DD698DB11E
:1034B000D0F898421C2707FB0142526CB5FBF2F48E
:1034C00002FB145434B9DC612246234608F050F85C
:1034D0002046F8BD0020C6F81402F8BD0220F8BD51
:1034E0002DE9F7430A784FF0000805460E4612F022
:1034F0006004D0F890728DF80580ADF8068028D071
:10350000202C47D1CC884B78E4B1120611D5D0F8E5
:10351000942239461846D2F808902246C847F288C5
:103520003946284600F052FC4446204603B0BDE828
:10353000F08387F80032224687F80142394600F0CE
:103540005AFCF1E7D0F89422184695682246A8471D
:10355000EBE74F780A2F0DD00B2F15D0D7B990F885
:103560007432032B14D102220DF1060100F02EFC5F
:103570003C46DAE790F87432032B09D101220DF1B1
:10358000050100F023FCD0E790F87432032BCCD077
:103590003146284600F0F3FB0224C6E738B504465E
:1035A0000025812107F098FF0121E562204607F000
:1035B00093FFC4F858518221204607F08DFFD4F8BC
:1035C000903225644BB1D4F894325B689847D4F8B4
:1035D000900208F0CFF8C4F89052002038BD037C68
:1035E0002DE9F0410446CBBB4FF400730222812148
:1035F000012507F061FF4FF40073E56229460222BE
:10360000204607F059FFC4F858510125082303222A
:103610008221204607F050FF25644FF4077008F020
:10362000A1F80646C4F8900258B3D4F894320027A3
:103630001B68984794F81080C6F81472C6F8187280
:10364000B8F1000F13D14FF40073D6F804222946C5
:10365000204607F09BFF4046BDE8F081012540234E
:103660000222812107F028FFE5624023C6E74023BC
:10367000D6F804222946204607F088FF3846BDE8E0
:10368000F0812846BDE8F08119B1C0F894120020FD
:10369000704702207047D0F890320020C3F808121B
:1036A000C3F810227047D0F890320020C3F80412FB
:1036B0007047D0F8902210B582B1D2F8144201239D
:1036C00074B9C2F814328121D2F81032D2F808222B
:1036D00003639BB207F04CFF204610BD022010BDD3
:1036E000184610BDD0F8902210B562B1047C44B9E0
:1036F0004FF40073D2F80422012107F047FF0020A5
:1037000010BD4023F6E7022010BD08B580B1D0F807
:103710008C3213B10023C0F88C3209B1C0F8881282
:103720000123027080F8743207F084FE002008BD87
:10373000022008BD19B1C0F88C1200207047022089
:10374000704708B507F0AAFE002008BD08B5D0F8FC
:103750008C320BB9022008BD1B6898470028F9D1AC
:1037600008BD08B5D0F88C325B689847002008BDCA
:1037700038B500F520750446284600F0ECFA012320
:1037800094F88012C4F86C32B4F88632C4F87032FF
:1037900001F01F03012B0ED007D3022B10D001F034
:1037A0008001204607F0A6FE03E02946204600F0EF
:1037B00001F9002038BD2946204600F01DFAF8E73F
:1037C0002946204600F03DFAF3E770B50546164657
:1037D00039BBD0F86C32032B1ED1D0F84C31D0F865
:1037E000502193420BD99B1A31469A42C0F84C3172
:1037F0008CBF9AB292B200F00DFB002070BDD0F8E1
:103800008C321B6923B190F87422032A00D19847A7
:10381000284600F007FBF0E7052BEED107F06AFE23
:10382000EBE7D0F88C329B692BB190F87422032A15
:1038300001D19847E1E7022070BD70B513460446F8
:103840000E46002947D1D0F86C22022A3CD1056AE5
:10385000426A954213D9AA1A1946026292B200F03E
:10386000C2FA33461A461946204607F08FFE94F8EE
:1038700078320020012B3AD184F8780270BDC369F8
:10388000B3FBF2F502FB153565B99A420AD8D0F8B8
:103890007022934206D22A4600F0A5FAC4F870526C
:1038A0002B46DFE7D4F88C32DB682BB194F8742216
:1038B000032A01D1204698478021204607F01AFEAE
:1038C000204600F0BAFAD2E732F00403CFD18021CB
:1038D00007F010FECBE7D0F88C325B6933B190F87B
:1038E0007422032A02D19847002070BD022070BDC7
:1038F0000022402370B5044601254026114607F0FA
:10390000DBFD80213346C4F84451C4F850610022E5
:10391000204607F0D1FD0021D4F89032A5616662FF
:1039200084F87452C4F86C126160C4F87C1223B13C
:10393000D4F88C3220465B689847002070BD017433
:103940000020704790F8743280F87532042380F8B4
:1039500074320020704790F8753280F8743200207D
:10396000704708B590F87422032A04D1D0F88C323D
:10397000DB6903B19847002008BD00207047002094
:103980007047002070470122017908B580F8742241
:10399000D0F88C2252689047002008BD10B504462C
:1039A000802107F0A7FD00212046BDE8104007F068
:1039B000A1BD000037B50B7804460D4603F0600347
:1039C000202B14D0402B12D0002B40F095804B7848
:1039D000092B00F29080DFE813F0E70001018E0070
:1039E000FA008E00820013008E00D200A000D4F8EE
:1039F0008C32294620469B689847002003B030BD92
:103A00004B881A0A013A0E2A75D8DFE802F02428FA
:103A1000357474555E747474747474740800D0F8DA
:103A20008832DB690DF10601207C9847BDF806203D
:103A300052B1EB8843B19A420146204628BF1A464C
:103A4000ADF8062000F0C2F9EB88002BD5D1204656
:103A500000F0E8F9D1E7D0F888321B68E2E7027C91
:103A6000D0F88C3232B99B6A0DF1060098470223D8
:103A70004370DBE7DB6AF7E7DBB2052B3BD8DFE817
:103A800003F003070B0F1317D0F888325B68C9E700
:103A9000D0F888329B68C5E7D0F88832DB68C1E788
:103AA000D0F888321B69BDE7D0F888325B69B9E786
:103AB000D0F888329B69B5E7037CE3B9D0F88C3243
:103AC0000DF106005B6B9847B0E7037C9BB9D0F81B
:103AD0008C320DF106001B6B98470723C8E78B88D3
:103AE0004BB9CB883BB94D887F2D04D890F8743200
:103AF000E9B2032B03D12046FFF750FF7DE780F8A2
:103B0000761207F027FD204600F08CF91DB1022344
:103B100084F8743271E70123FAE78978354D012979
:103B20002970E8D890F87432022B08D0032B14D0F7
:103B3000FFF734FF29782046FFF713FE5DE70029E1
:103B400085D001210323416080F874322046FFF7BD
:103B5000FDFD02287FF47BAFCDE731B90223416040
:103B600080F87432FFF7FDFD71E7416801293FF4E9
:103B70006EAFC9B2FFF7F5FD29786160E6E7CA8844
:103B8000012AB8D190F87432002BB4D0022B03D99B
:103B9000032BB0D1011D03E00146002341F8083F8B
:103BA000204600F013F928E790F87432013B022B0D
:103BB000A1D8CB88022B9ED10123C360D0F87C32E0
:103BC0000BB10323C360022204F10C01E8E74B8828
:103BD000012B7FF412AFC4F87C3238E790F87432CE
:103BE000013B022B87D84B88012B7FF406AF0023C3
:103BF000F1E700BFF401002038B50B7804460D460C
:103C000003F06003202B02D0402B00D0B3B994F80E
:103C10007432013B022B10D82B79012B0DD8D4F82C
:103C20008C32294620469B689847EB881BB910B90F
:103C3000204600F0F7F8002038BD2046FFF7AEFE22
:103C4000F9E738B50A7804460B4602F06002202AEC
:103C500013D0402A11D06AB95D788A88012DD1B27B
:103C60001FD035D3032D05D190F87422022A26D017
:103C7000032A0AD0FFF792FE05E0D4F88C221946F9
:103C8000204692689047002038BD5A882AB94A06D3
:103C900003D0DB880BB907F02DFC204600F0C2F8FA
:103CA000F1E790F87422022A09D0032AE2D15B8856
:103CB000002BE8D14D06F0D007F02AFCEDE74B06CB
:103CC00017D007F017FC8021204607F013FCDAE735
:103CD00090F87432022B0ED0032BCBD112F0800F50
:103CE0004FF0140301F00F0203FB020214D092699B
:103CF000EAB92046BEE74906FBD113064FF00003A0
:103D00004FF002024CBF00F1140100F5A0710B60EE
:103D1000204600F05BF8B6E7D2F84421002AE8D04C
:103D200001F07F0503FB050505F5A07504E001F032
:103D30007F0505FB0335054411F07F0303D12B609C
:103D400002222946E4E7204607F0F0FB08B10123F0
:103D5000F5E72860F4E70B7803704B784370CA7876
:103D60008B7803EB022343804A790B7903EB022320
:103D70008380CA798B7903EB0223C380704710B527
:103D80000446802107F0B6FB00212046BDE8104024
:103D900007F0B0BB30B588B105462B1A15F8014BBA
:103DA000DBB2002CF9D1013301385B0013800B70BA
:103DB00003234B70022310F8015F05B930BD5A1C74
:103DC000CD540233D2B2DBB28C54F4E71346022254
:103DD00010B5C0F86C220A46C3610021036207F0E7
:103DE000C7FB002010BD08B513460A46002107F0A6
:103DF000BFFB002008BD1346032210B5C0F86C229B
:103E00000A46C0F848310021C0F84C3107F0BEFB2B
:103E1000002010BD08B513460A46002107F0B6FB86
:103E2000002008BD08B50423C0F86C3200231A46F0
:103E3000194607F09DFB002008BD08B50523C0F812
:103E40006C3200231A46194607F0A0FB002008BD7B
:103E500008B501F0ADF8002008BDEFF305830BB104
:103E600001F0F4B801F0ECB830B5B0F9084085B015
:103E7000028A0B46842C90E8220014BF03340024ED
:103E800003A800940190284600F0C2FF01280CBF4F
:103E90000398002005B030BD002808BF012008B5F8
:103EA00001F0EAF9002008BD012000F053BD000038
:103EB00013B500240A460194E8B1EFF30583A3B1DA
:103EC00001AA214600F0EAFE012802D0FF2002B03C
:103ED00010BD019B3BB14FF08052084B1A60BFF3FD
:103EE0004F8FBFF36F8F0020F1E7194600F00CFEF3
:103EF0000128EBD1F7E78020E9E700BF04ED00E0FF
:103F00000129084610B50CD10322002100F040FC25
:103F1000044620B100231A46194600F05DFC2046F5
:103F200010BD0024FBE7000013B500240A460194ED
:103F3000E8B1EFF30583A3B101AA214600F0AEFE7C
:103F4000012802D0FF2002B010BD019B3BB14FF011
:103F50008052084B1A60BFF34F8FBFF36F8F002062
:103F6000F1E7194600F0D0FD0128EBD1F7E78020FA
:103F7000E9E700BF04ED00E013B500240194EFF37E
:103F8000058393B101A900F061FD012813D1019BC4
:103F900013B9002002B010BD4FF08052074B1A60D9
:103FA000BFF34F8FBFF36F8FF3E71A46194600F048
:103FB00013FC0128EDD0FF20ECE700BF04ED00E08A
:103FC000FFF7DABF002203C800F0E2BB1FB50024F0
:103FD00001910394A24208BF0122EFF30583ABB124
:103FE000234603AA01A900F0C7FC012802D0FF2044
:103FF00004B010BD039B3BB14FF08052064B1A60DA
:10400000BFF34F8FBFF36F8F0020F1E701A900F0DE
:10401000E3FB0128EBD1F7E704ED00E0F0B5002663
:1040200085B00446174608460391029601AD11B9C2
:104030008023019316E00096EFF30583CBB16A4627
:1040400002A900F02BFE01280ABF1023019601935C
:10405000009B3BB14FF080520C4B1A60BFF34F8F67
:10406000BFF36F8F95E8070084E80700204605B08E
:10407000F0BD02A900F048FD012801D11023D8E7C6
:10408000002F0CBF00234023D3E700BF04ED00E066
:1040900008B501F041FA012803D0BDE8084000F05E
:1040A00011B908BD00F108034FF0FF324360C3604F
:1040B000036100238260036070470023036170473F
:1040C00043689A684B608A609A6851609960036897
:1040D00008610133036070470A68531C30B50AD188
:1040E00003695A684A6091608B605960036808618F
:1040F0000133036030BD00F108035C682568AA4203
:10410000EFD32346F9E74168826803698A608268D1
:1041100051605968884208BF5A60002202611868DD
:1041200001381860704700000C4B1B6801330AD03F
:104130004FF0500372B683F31188BFF36F8FBFF354
:104140004F8F62B6FEE74FF0500372B683F31188CB
:10415000BFF36F8FBFF34F8F62B6FEE714010020ED
:1041600006480068006880F3088862B661B6BFF34D
:104170004F8FBFF36F8F00DF00BF000008ED00E03E
:10418000DFF80C00016841F4700101607047000025
:1041900088ED00E04FF0807321F0010140F8202C01
:1041A00044380364034BC16383636FF0020303620B
:1041B000704700BF29410008000000000000000017
:1041C000074B19680868B0E8F04F80F30988BFF31F
:1041D0006F8F4FF0000080F311887047AFF30080BD
:1041E000143E00204FF0500372B683F31188BFF3E2
:1041F0006F8FBFF34F8F62B60B4A13680133012BE9
:1042000013600FD1094B1B6813F0FF0F0AD04FF05A
:10421000500372B683F31188BFF36F8FBFF34F8FD4
:1042200062B6FEE7704700BF1401002004ED00E015
:10423000094A136853B94FF0500372B683F31188DB
:10424000BFF36F8FBFF34F8F62B6FEE7013B136082
:104250000BB983F31188704714010020000000009F
:10426000EFF30980BFF36F8F154B1A681EF0100F24
:1042700008BF20ED108A20E9F04F10604DF8043D92
:104280004FF0500072B680F31188BFF34F8FBFF329
:104290006F8F62B601F050F84FF0000080F3118884
:1042A00008BC19680868B0E8F04F1EF0100F08BF8E
:1042B000B0EC108A80F30988BFF36F8F704700BF9E
:1042C000143E002008B54FF0500372B683F31188F6
:1042D000BFF36F8FBFF34F8F62B600F0BFFE18B110
:1042E0004FF08052024B1A60002383F3118808BDFF
:1042F00004ED00E0064B4FF47A721B68B3FBF2F357
:10430000044A013B13600722034B1A60704700BF49
:104310001C01002014E000E010E000E0234B13B586
:104320001A780021D2B20192FF221A701B78204A1B
:10433000DBB28DF803309DF8033003F050031370A7
:1043400007221C4B1A609DF80300541E000623D45C
:1043500001B11A601A68120202F4E0621A60019B4D
:10436000124ADBB21370144B1A6842F470021A60DE
:104370001A6842F070421A60FFF7BCFF00220F4B30
:104380001A60FFF7FDFE0E4A136843F040431360C6
:10439000FFF7E6FEFFF7C8FE9DF80320012152005B
:1043A000D2B28DF803202246CDE700BF00E400E042
:1043B000F5010020F801002020ED00E014010020AC
:1043C00034EF00E0EFF305830F2B10D9124A9B5C0A
:1043D000124A12789A420AD94FF0500372B683F308
:1043E0001188BFF36F8FBFF34F8F62B6FEE70C4BA0
:1043F0000C4A1B68126803F4E06393420AD94FF039
:10440000500372B683F31188BFF36F8FBFF34F8FE2
:1044100062B6FEE7704700BFF0E300E0F501002060
:104420000CED00E0F80100200F4B10B51A68824235
:1044300018D35C681919884201BF416818460919E8
:104440005960446801198A4207D1084909688A42BB
:104450001FBF51681268091941609842026018BF75
:10446000186010BD1346E1E70C3E0020FC0100205F
:104470002DE9F041044600F0DBFD4049404D0B685A
:104480000BBB404A5607404E1BBFD01D02F5705370
:104490004FF4705320F007001CBF02461B1A002087
:1044A000134432607060083B23F0070318605860C3
:1044B000981A0B601360354B50601860344B1860CD
:1044C0004FF000432B602F68274216D1002C42D0BA
:1044D00004F1080358071CBF23F00703083363B136
:1044E0002B4A16689046B34207D8274A1568686871
:1044F000834204D809688D4207D100242BE02C6840
:10450000002CF7D02A462546F1E729681468116087
:10451000C21A102A11D9E81841070AD04FF05003E7
:1045200072B683F31188BFF36F8FBFF34F8F62B6FC
:10453000FEE742606B60FFF777FF6B680834134952
:10454000F61A1F4308680023C8F8006086426F60AF
:104550002B6038BF0E6000F015FE63070AD04FF0E5
:10456000500372B683F31188BFF36F8FBFF34F8F81
:1045700062B6FEE72046BDE8F08100BFFC010020E6
:10458000003E0020000200200C3E0020083E0020DB
:10459000043E002010B50446002832D0194A50F8D5
:1045A000043C126813420AD14FF0500372B683F3F1
:1045B0001188BFF36F8FBFF34F8F62B6FEE750F8DD
:1045C000081C51B14FF0500372B683F31188BFF34A
:1045D0006F8FBFF34F8F62B6FEE723EA020340F806
:1045E000043C00F025FD084A54F8043CA4F10800FE
:1045F00011680B441360FFF717FFBDE8104000F08F
:10460000C1BD10BD003E0020043E002070B515461F
:10461000026C0446866B42B905689DB9406800F09B
:10462000D1FF65600136A66370BD6DB9806807F083
:10463000B8F8A368226C134462689342A36001D364
:104640002368A3600020EDE7C06807F0AAF8236C98
:10465000E2685B4221681A448A42E2603EBF6268B7
:104660009B18E360022DEDD10EB1013EEAE7304622
:10467000D8E7034608461A6C10B462B1D9685C6882
:104680001144A142D9605DF8044B24BF1968D96078
:10469000D96807F086B85DF8044B704770B50446DA
:1046A000FFF7A0FD94F8455004F124066DB2002DEB
:1046B00014DCFF2304F1100684F84530FFF7B8FD41
:1046C000FFF790FD94F844506DB2002D12DCFF23EB
:1046D00084F84430BDE87040FFF7AABD636A002B40
:1046E000E7D0304600F080FE08B100F00FFF013D3A
:1046F0006DB2DCE72369002BE9D0304600F074FE90
:1047000008B100F003FF013D6DB2DEE738B50D469C
:10471000044650B94FF0500372B683F31188BFF3CB
:104720006F8FBFF34F8F62B6FEE7FFF75BFD206C24
:10473000E36B22684343A260D1181B1A13446160E3
:104740000021E360FF23A16384F8443084F84530FE
:1047500095B9236963B104F1100000F045FE38B14A
:104760004FF08052094B1A60BFF34F8FBFF36F8F2A
:10477000FFF75EFD012038BD04F11000FFF792FC49
:1047800004F12400FFF78EFCF2E700BF04ED00E027
:1047900070B50D46064650B94FF0500372B683F31C
:1047A0001188BFF36F8FBFF34F8F62B6FEE74843A8
:1047B0004830FFF75DFE044638B145B92060E66336
:1047C000012125642046FFF7A1FF204670BD00F1BE
:1047D00048030360F3E700002DE9FF478946019293
:1047E0001F46044650B94FF0500372B683F3118848
:1047F000BFF36F8FBFF34F8F62B6FEE7002940F023
:104800008C80036C002B00F088804FF0500372B650
:1048100083F31188BFF36F8FBFF34F8F62B6FEE74C
:10482000019E002E00F084804FF0500372B683F397
:104830001188BFF36F8FBFF34F8F62B6FEE7019D04
:104840001DB9FFF7F5FC002058E016B902A800F0EA
:104850000FFEFFF7EDFC00F0EBFBFFF7C3FC94F855
:104860004430FF2B01D184F8448094F84530FF2B6D
:1048700001D184F84580FFF7DBFC01A902A800F014
:1048800007FE002843D1FFF7ADFCA66BE56BFFF7F1
:10489000CFFCAE4235D1019904F1100000F088FD43
:1048A0002046FFF7FBFE00F06DFC38B94FF0805357
:1048B000CAF80030BFF34F8FBFF36F8F0126FFF7A9
:1048C00091FCA26BE36B9A4201D3022FB7D13A4617
:1048D00049462046FFF79AFE636A1BB104F12400A3
:1048E00000F082FD38B14FF08052194B1A60BFF3CF
:1048F0004F8FBFF36F8FFFF79BFC012004B0BDE823
:10490000F0872046FFF7CAFE00F03CFCD6E72046C1
:10491000FFF7C4FE00F036FC95E7022F02D1E36BEF
:10492000012B0AD100F0F8FD00283FF479AF0026F2
:104930004FF00008DFF818A0C1E74FF0500372B63F
:1049400083F31188BFF36F8FBFF34F8F62B6FEE71B
:1049500004ED00E010B5024600210120FFF718FF2A
:10496000044638B1002343601A4603601946C36009
:10497000FFF732FF204610BD2DE9F84388469146E7
:104980001F46044650B94FF0500372B683F31188A6
:10499000BFF36F8FBFF34F8F62B6FEE719BB036C97
:1049A0000BB34FF0500372B683F31188BFF36F8FD0
:1049B000BFF34F8F62B6FEE704F1240000F014FD50
:1049C000002836D0B9F1000F33D00120C9F800001B
:1049D00086F31188BDE8F88301356DB284F845503F
:1049E00027E00020F4E7022F02D1E36B012B22D154
:1049F000FFF7E8FCEFF311864FF0500372B683F334
:104A00001188BFF36F8FBFF34F8F62B6A26BE36B5A
:104A10009A4201D3022FE4D194F845503A464146D8
:104A200020466DB2FFF7F2FD6B1CD5D1636A002BF7
:104A3000C2D10120CCE74FF0500372B683F3118846
:104A4000BFF36F8FBFF34F8F62B6FEE770B50D46B1
:104A5000044650B94FF0500372B683F31188BFF388
:104A60006F8FBFF34F8F62B6FEE7036C53B14FF009
:104A7000500372B683F31188BFF36F8FBFF34F8F6C
:104A800062B6FEE7036813B94368002B30D1FFF725
:104A900099FCEFF311864FF0500372B683F311883F
:104AA000BFF36F8FBFF34F8F62B6A26BE36B9A4277
:104AB00001D3002014E094F8453001325BB2A263C8
:104AC0005A1C10D1636A0BB9012009E004F12400DB
:104AD00000F08AFC0028F7D0002DF5D001202860D6
:104AE00086F3118870BD01335BB284F84530EBE783
:104AF0004FF0500372B683F31188BFF36F8FBFF38B
:104B00004F8F62B6FEE700002DE9FF47884601920D
:104B10009946044650B94FF0500372B683F311889A
:104B2000BFF36F8FBFF34F8F62B6FEE7002940F0EF
:104B3000A980036C002B00F0A5804FF0500372B6E3
:104B400083F31188BFF36F8FBFF34F8F62B6FEE719
:104B5000019E002E00F09C804FF0500372B683F34C
:104B60001188BFF36F8FBFF34F8F62B6FEE7636AA2
:104B7000E660002B6DD004F124005FE0019D1DB9BB
:104B8000FFF756FB284667E016B902A800F070FC54
:104B9000FFF74EFB00F04CFAFFF724FB94F844308B
:104BA000FF2B01D184F8447094F84530FF2B01D1DC
:104BB00084F84570FFF73CFB01A902A800F068FCEF
:104BC000002852D1FFF70EFBA56BFFF731FB002D3C
:104BD00045D1236833B9FFF705FB606800F0ACFCF2
:104BE000FFF726FB019904F1240000F0E1FB2046C9
:104BF000FFF754FD00F0C6FA38B94FF08053CAF8F9
:104C00000030BFF34F8FBFF36F8F0126FFF7EAFA33
:104C1000A56B002DB2D041462046E668FFF729FD7E
:104C2000B9F1000FA3D1013D2368A56313B900F0CA
:104C30001DFD6060236963B104F1100000F0D4FB36
:104C400038B14FF08052144B1A60BFF34F8FBFF34F
:104C50006F8FFFF7EDFA012004B0BDE8F087204622
:104C6000FFF71CFD00F08EFACFE72046FFF716FD98
:104C700000F088FAFFF7B6FAA56BFFF7D9FA002D16
:104C8000C3D17FE700F048FC00283FF461AF002665
:104C90000027DFF804A0B9E704ED00E02DE9F843B0
:104CA00089469046054650B94FF0500372B683F3DB
:104CB0001188BFF36F8FBFF34F8F62B6FEE781BBE2
:104CC000036C73B34FF0500372B683F31188BFF3D4
:104CD0006F8FBFF34F8F62B6FEE795F84460494689
:104CE0002846013C76B2FFF7C4FCAC63731C13D1B9
:104CF0002B690BB901200BE005F1100000F074FBEB
:104D00000028F7D0B8F1000FF4D00120C8F8000057
:104D100087F31188BDE8F883013676B285F84460E0
:104D2000E8E7FFF74FFBEFF311874FF0500372B640
:104D300083F31188BFF36F8FBFF34F8F62B6AC6BF5
:104D4000002CCAD12046E3E7064A13681968064BCF
:104D500019B94FF0FF321A6070471268D268D268F2
:104D60005268F8E7183E0020F03E0020F8B51B4BD3
:104D700004461B4E0F461D6830680430FFF7C3F928
:104D8000334640B931680120164EC96A32688840FE
:104D900022EA00023260621C07D137B1196812485A
:104DA0000431BDE8F840FFF78BB92C441A68A542DE
:104DB000546007D90D4A10681968BDE8F8400431FD
:104DC000FFF78AB90A4A106819680431FFF784F9B5
:104DD000084B1A68944200D21C60F8BD383F00208E
:104DE000143E0020C03E0020103F00201C3E00204A
:104DF000183E0020F03E00204FF0500372B683F3BF
:104E00001188BFF36F8FBFF34F8F62B6FEE70000CC
:104E10002DE9F84F4FEA820A80460F4699465046E0
:104E20000B9EFFF725FB0546002800F096805420D6
:104E3000FFF71EFB0446002800F08C80AAF1040A4C
:104E400005637B1E00F1340255440F3725F0070A35
:104E5000597802F8011B13F8011F09B1BB42F7D1C1
:104E60000A9D4FF0000B271D062D84F843B03846ED
:104E7000C4F848B028BF0625E5626564C5F107059A
:104E8000FFF71BF904F11800FFF717F9C4F84CB04D
:104E900024614A46A56141466462504684F850B098
:104EA000FFF778F9206006B13460FFF79BF9324BC9
:104EB000324E1A68DFF8F08001321A603568002D32
:104EC0004ED134601B68012B1DD108EB0500143551
:104ED000FFF7E8F88C2DF8D1DFF8D090284D484640
:104EE000FFF7E0F82846FFF7DDF82648FFF7DAF885
:104EF0002548FFF7D7F82548FFF7D4F8244BC3F827
:104F00000090244B1D60244A012524491368086839
:104F100001331360E26A05FA02F3034314200B60C5
:104F2000394600FB0280FFF7CBF8FFF781F91C4BF5
:104F30001B6863B13368DA6AE36A9A4207D24FF0BA
:104F40008052184B1A60BFF34F8FBFF36F8F284604
:104F5000BDE8F88F2846FFF71DFB4FF0FF35F6E759
:104F60000F4B1B68002BCED13368DA6AE36A9A4292
:104F7000C9D83460C7E700BFAC3E0020143E002013
:104F8000D83E0020F83E0020243F0020103F0020A3
:104F9000183E00201C3E0020BC3E0020C03E0020E9
:104FA0000C3F002004ED00E0203E0020C43E002025
:104FB00013B5194B0024802218490193234600940D
:104FC0001748FFF725FF012816D14FF0500372B69E
:104FD00083F31188BFF36F8FBFF34F8F62B64FF02B
:104FE000FF32104B1A60104B1860104B1C6002B05F
:104FF000BDE81040FFF792B901300AD14FF05003DD
:1050000072B683F31188BFF36F8FBFF34F8F62B611
:10501000FEE702B010BD00BFEC3E002009C600084C
:10502000C5520008F03E00200C3F0020383F002011
:10503000024A136801331360704700BFB83E002076
:10504000014B1868704700BF383F002008B5FFF7D4
:10505000B9F9014B186808BD383F00202DE9F84F19
:105060003D4B1B68002B55D13C4B1C6801341C6028
:10507000CCB93B4B1A68126852B14FF0500372B66C
:1050800083F31188BFF36F8FBFF34F8F62B6FEE7D4
:10509000344A1968106818601160334A1368013384
:1050A0001360FFF751FE314D4FF0000B304F2B686E
:1050B0009C423ED3DFF8A880DFF8C490D8F80020E7
:1050C000126872BB4FF0FF322A6032E006F1040A28
:1050D0005046FFF718F8B16A19B106F11800FFF74A
:1050E00012F8F06A0122D9F800304FF0140E02FADB
:1050F00000F119431F4BC9F8001051460EFB003058
:10510000FEF7DEFF3868F16AC26A914228BF4FF0AD
:10511000010BD3E7184A4FF0000B136801331360FB
:1051200011E0D8F80020D268D66871688C42CDD2E0
:1051300029603A680F4BD16A14224A439A58022ACE
:1051400028BF4FF0010B0D4A1268002A18BF4FF01C
:10515000010B5846BDE8F88FB83E0020383F0020CC
:10516000183E00201C3E0020F43E0020F03E0020AF
:10517000143E0020203E0020B43E00203C3F002092
:10518000C03E00202DE9F843324C236853B94FF05C
:10519000500372B683F31188BFF36F8FBFF34F8F45
:1051A00062B6FEE7FFF71EF82368013B2360246820
:1051B0002CB10024FFF73CF82046BDE8F883264BCD
:1051C0001B68002BF5D0DFF8A890244FDFF8A480EF
:1051D000D9F80030E3B90CB1FFF7B6FD204D2C68CB
:1051E00044B1204E0127FFF739FF00B13760013C81
:1051F000F9D12C601B4B1B68002BDAD04FF080528A
:10520000194B1A60BFF34F8FBFF36F8F0124D1E7A3
:10521000D9F80C300125DC68261D04F11800FEF7D2
:1052200072FF3046FEF76FFFE26A3968142005FA14
:1052300002F300FB02800B4331463B60FEF740FF68
:105240000A4BE26A1B68DB6A9A42C1D3054B1D60B8
:10525000BEE700BFB83E0020AC3E0020C03E0020AC
:10526000B43E00203C3F002004ED00E0143E00204E
:10527000F83E0020203E002008B540B94FF0805293
:105280000E4B1A60BFF34F8FBFF36F8F08BD0C4BEF
:10529000196851B14FF0500372B683F31188BFF310
:1052A0006F8FBFF34F8F62B6FEE7FFF7C1FEFFF7C8
:1052B0005DFDFFF767FF0028E0D008BD04ED00E0CA
:1052C000B83E0020174E08B5174C236863B9174B3A
:1052D0001B68012BF8D94FF08052154B1A60BFF3B1
:1052E0004F8FBFF36F8FEFE7FFF7A2FE3568FFF731
:1052F00049FF002DE9D0FEF775FFF368DD68281D32
:10530000FEF701FF0B4A1368013B13602368013B62
:105310002360FEF78DFF286BFFF73CF92846FFF767
:1053200039F9D2E7243F0020B03E0020203E002083
:1053300004ED00E0AC3E0020184B1A68184B10B585
:1053400012B101221A6010BD1A60164B1B68B3FA25
:1053500083F3DBB214221449C3F11F035A438C5860
:10536000881854B94FF0500372B683F31188BFF315
:105370006F8FBFF34F8F62B6FEE7446808326468F0
:105380000A449442446004BF62684260142202FBF3
:1053900003135B68DA68054BD4E700BFB83E002012
:1053A0003C3F0020C03E0020203E0020143E002054
:1053B00010B50C4650B94FF0500372B683F3118804
:1053C000BFF36F8FBFF34F8F62B6FEE7054B1968CF
:1053D0001831FEF781FE20460121BDE81040FFF79D
:1053E000C5BC00BF143E002038B5C368DC6854B9A2
:1053F0004FF0500372B683F31188BFF36F8FBFF382
:105400004F8F62B6FEE704F118052846FEF77BFED3
:10541000114B1B68DBB9251D2846FEF774FE0F49AA
:10542000E26A012308689340034314200B60294675
:105430000B4B00FB0230FEF743FE0A4BE26A1B688F
:10544000DB6A9A4206D90120074B186038BD29460D
:105450000648F0E7002038BDB83E0020C03E0020DE
:10546000203E0020143E00203C3F0020F83E00205B
:1054700008B508B9FFF7C0FC034B1B680360034B7A
:105480001B68436008BD00BFF43E0020383F002089
:1054900038B50D46044650B94FF0500372B683F349
:1054A0001188BFF36F8FBFF34F8F62B6FEE751B91C
:1054B0004FF0500372B683F31188BFF36F8FBFF3C1
:1054C0004F8F62B6FEE7FEF78DFE0E4B19682B6814
:1054D0005A1C10D00C4A206812689042626801D0B1
:1054E00091420DD2881A83420AD95B1A204613448E
:1054F0002B60FFF7BDFF0024FEF79AFE204638BD63
:105500000124F9E7383F0020F43E00200122014B3E
:105510001A6070473C3F0020054B1B6833B1054BB8
:105520001B68002B0CBF0220002070470120704731
:105530000C3F0020B83E00202DE9F0410446002831
:1055400038D01D4DC36A2A68D26A934232D282692A
:10555000002A04DB2A68D26AC2F107028261174E70
:105560001427626907FB03639A4220D104F10408FF
:105570004046FEF7C8FD124A48B9E06A4743F3596E
:105580002BB901211368814023EA010313602B68C2
:105590001168D86A01238340E0620B4341461360DF
:1055A000142303FB0060BDE8F041FEF789BD2B68C2
:1055B000DB6AE362BDE8F081143E0020203E00205B
:1055C000C03E0020F8B5044608B90020F8BD244BC1
:1055D0001B6898420AD04FF0500372B683F31188CB
:1055E000BFF36F8FBFF34F8F62B6FEE7836C53B983
:1055F0004FF0500372B683F31188BFF36F8FBFF380
:105600004F8F62B6FEE7C16A013B426C83649142F0
:10561000DBD0002BD9D1051D124E2846FEF773FDB5
:10562000114A50B9E76A1421794373582BB9012004
:105630001368B84023EA00031360636CC3F10701E9
:10564000E362A1610124116804FA03F008432946CA
:105650001060142000FB0360FEF732FD2046F8BD09
:10566000143E0020203E0020C03E0020044B1A685B
:105670001AB119688A6C01328A641868704700BFD1
:10568000143E00201D4B1B6807B513B11C4A10685F
:1056900098471C4D1C4E1D4C1A4805F016F928461B
:1056A00005F018F901A9304604F020FF284605F05E
:1056B0000CF9019B33B9234669221549154806F0B8
:1056C0002FF9ECE71A78032A0BD0042A0FD0022A0C
:1056D00011D1181D07C890470199092001F018FD44
:1056E000DDE798685A68904701990820F6E75A68FC
:1056F00098689047D3E723469B22DEE7443F00208B
:10570000483F0020EC400020403F00206CC60008CD
:105710009CC60008BAC60008F8B5074610480E46F1
:10572000154605F0B1F828B90E4BB5220E490F48C1
:1057300006F0F6F8092001F0CFFC044668B1022318
:105740004760866001460370C560054805F070F843
:1057500028B12146092001F0DBFC4FF0FF30F8BDF5
:10576000403F00206CC600085FC60008BAC60008AB
:1057700091F82B3013F0180F14BF024A024AFFF7BA
:10578000CBBF00BFF1A60008F1610008F8B50746DD
:1057900012480E46154605F077F828B9104BEE2250
:1057A0001049114806F0BCF8082001F095FC0446A9
:1057B00088B10323476086600146037007481DB126
:1057C00005F02AF80020F8BD05F032F828B121468E
:1057D000082001F09DFC4FF0FF30F8BD403F002055
:1057E0006CC600085FC60008BAC6000837B5054693
:1057F0000C4600F040F8134B062113481D60134B74
:105800001C6004F0F9FF30B1114B40F2D512114980
:10581000114806F085F8114805F048F830B10C4BF6
:1058200040F2D9120E490C4806F07AF80323002200
:105830000C4900934FF480630B4805F04EF803B019
:1058400030BD00BF443F0020403F0020483F0020C3
:105850006CC600080EC60008BAC60008EC4000205E
:1058600031C600088556000852C6000840BA80B20A
:10587000704700BA704708B505F00CF801F0B6F9AA
:1058800001F01CFC01F067FC04F082FE02F0DAF883
:10589000BDE8084004F000BE70B51826074C054668
:1058A0004643A05918B101F0B9FD0023A3511823B4
:1058B00003FB05440023237570BD00BF4C3F00204F
:1058C0002DE9F3470B9D894692469846074630B925
:1058D0002C4B4FF48B622C492C4806F021F8002207
:1058E0001C21022001F004FE0646002847D043890F
:1058F0001B2B06D8234B40F264422549234806F06F
:105900000FF87468BDF83400FFF7B0FFE08097F837
:105910002430062B06D01B4B40F26B421D491B481E
:1059200005F0FEFFD8F800304A4631463846A360FD
:10593000B8F80430A3812B68C4F81230AB88002576
:10594000E3820A9B1B68C4F80E300C9B1B68257011
:10595000A3610123E57063700823A37006232371FC
:105960000423637140F606030093534604F00CFFD2
:10597000304601F053FD284602B0BDE8F0874FF0F5
:10598000FF30F9E7D7C700080EC80008BAC60008FC
:105990001CC800084DC800082DE9F74F3E4B0A22ED
:1059A0000546002094461446814680468346964626
:1059B0001E460191BEF10A0F1F7D11D197B94FFA12
:1059C00080FE013018330A28F4D1019B990704D4D2
:1059D000BEF10A0F1CD1DB0735D44FF0FF3009E0D0
:1059E000002FEED0002D4AD029688A4659688A4592
:1059F00045D140B203B0BDE8F08FC245E1D34FFAC4
:105A000080FCD046DDE7CA4524BF44B2D146D8E782
:105A10005FFA8EF7182303FB07631B7D33B11F4B1F
:105A200040F287121E491F4805F07AFF25B118235E
:105A30002A6803FB07635A60182378B203FB0766E2
:105A400000237382D6E70A2C0FD01823E7B25C43F9
:105A5000335933B1114B40F26F121349114805F01D
:105A60005FFF3846FFF718FFD4E7BCF10A0F02D0FA
:105A70005FFA8CF7F5E70A2AAFD0D7B2F1E7012F2A
:105A8000B3F812A0BFD11F68002FB6D0DA4598D363
:105A900042B2D34695E700BF4C3F0020D7C700086D
:105AA000F9C60008BAC60008E2C6000870B5064686
:105AB000074D00242B7D2BB1AB68B34202D12046A9
:105AC000FFF7EAFE013418350A2CF3D170BD00BF90
:105AD0004C3F00202DE9F047804686B00C4649B97E
